{
  "contractName": "Owned",
  "abi": [
    {
      "constant": true,
      "inputs": [],
      "name": "owner",
      "outputs": [
        {
          "name": "",
          "type": "address"
        }
      ],
      "payable": false,
      "stateMutability": "view",
      "type": "function"
    },
    {
      "anonymous": false,
      "inputs": [
        {
          "indexed": true,
          "name": "old",
          "type": "address"
        },
        {
          "indexed": true,
          "name": "current",
          "type": "address"
        }
      ],
      "name": "OwnerChanged",
      "type": "event"
    },
    {
      "constant": false,
      "inputs": [
        {
          "name": "_newOwner",
          "type": "address"
        }
      ],
      "name": "setOwner",
      "outputs": [],
      "payable": false,
      "stateMutability": "nonpayable",
      "type": "function"
    }
  ],
  "bytecode": "0x608060405260008054600160a060020a0319163317905534801561002257600080fd5b506101be806100326000396000f3fe60806040526004361061004b5763ffffffff7c010000000000000000000000000000000000000000000000000000000060003504166313af403581146100505780638da5cb5b14610092575b600080fd5b34801561005c57600080fd5b506100906004803603602081101561007357600080fd5b503573ffffffffffffffffffffffffffffffffffffffff166100d0565b005b34801561009e57600080fd5b506100a7610176565b6040805173ffffffffffffffffffffffffffffffffffffffff9092168252519081900360200190f35b60005473ffffffffffffffffffffffffffffffffffffffff1633146100f457600080fd5b6000805460405173ffffffffffffffffffffffffffffffffffffffff808516939216917fb532073b38c83145e3e5135377a08bf9aab55bc0fd7c1179cd4fb995d2a5159c91a36000805473ffffffffffffffffffffffffffffffffffffffff191673ffffffffffffffffffffffffffffffffffffffff92909216919091179055565b60005473ffffffffffffffffffffffffffffffffffffffff168156fea165627a7a72305820be2045bf96b2753818ce3c410c2bf907e3211718f4ff60e7be360840b51c34ca0029",
  "source": "pragma solidity ^0.5.0;\r\n\r\n/**\r\n * The Parking contract allows the buying the selling of parking space\r\n */\r\ncontract User {\r\n  string firstName;\r\n  string lastName;\r\n\r\n  uint256 lat;\r\n  uint256 long;\r\n  address payable wallet;\r\n\r\n  function getFirstName () public view returns(string memory) {\r\n    return firstName;\r\n  }\r\n\r\n  function setFirstName (string memory _firstName) public {\r\n    firstName = _firstName;\r\n  }\r\n\r\n  function getLastName () public view returns(string memory) {\r\n    return lastName;\r\n  }\r\n\r\n  function setLastName (string memory _lastName) public {\r\n    lastName = _lastName;\r\n  }\r\n\r\n  function getLat () public view returns(uint256) {\r\n    return lat;\r\n  }\r\n\r\n  function setLat (uint256 _lat) public {\r\n    lat = _lat;\r\n  }\r\n\r\n  function getLong () public view returns(uint256) {\r\n    return long;\r\n  }\r\n\r\n  function setLong (uint256 _long) public {\r\n    long = _long;\r\n  }\r\n\r\n  function getWallet () public view returns(address payable){\r\n    return wallet;\r\n  }\r\n\r\n  function setWallet (address payable _wallet) public {\r\n    wallet = _wallet;\r\n  }\r\n  \r\n  \r\n}\r\n\r\n/**\r\n * The Owned contract ensures that only the creator (deployer) of a\r\n * contract can perform certain tasks.\r\n */\r\ncontract Owned {\r\n  address public owner = msg.sender;\r\n  event OwnerChanged(address indexed old, address indexed current);\r\n  modifier only_owner { require(msg.sender == owner); _; }\r\n  function setOwner(address _newOwner) only_owner public { emit OwnerChanged(owner, _newOwner); owner = _newOwner; }\r\n}\r\n\r\n",
  "sourcePath": "C:/Users/augus/Desktop/August/code/hackathons/ETHWaterloo2019/APP/EthWaterloo/contracts/User.sol",
  "compiler": {
    "name": "solc",
    "version": "0.5.0+commit.1d4f565a.Emscripten.clang"
  },
  "schemaVersion": "3.0.1",
  "updatedAt": "2019-11-09T19:54:20.659Z",
  "devdoc": {
    "methods": {}
  },
  "userdoc": {
    "methods": {},
    "notice": "The Owned contract ensures that only the creator (deployer) of a\r contract can perform certain tasks.\r"
  }
}