{
  "contractName": "TodoList",
  "abi": [
    {
      "constant": true,
      "inputs": [],
      "name": "taskCount",
      "outputs": [
        {
          "name": "",
          "type": "uint256"
        }
      ],
      "payable": false,
      "stateMutability": "view",
      "type": "function"
    }
  ],
  "bytecode": "0x608060405260008055348015601357600080fd5b506099806100226000396000f3fe608060405260043610603e5763ffffffff7c0100000000000000000000000000000000000000000000000000000000600035041663b6cb58a581146043575b600080fd5b348015604e57600080fd5b5060556067565b60408051918252519081900360200190f35b6000548156fea165627a7a7230582005e4dbdfc341bb8185f0eb183cd8e0b166c9a20b48fa4b2f9249b71ffb104c570029",
  "source": "//version\r\npragma solidity ^0.5.0;\r\n\r\n//declare smart contract\r\ncontract TodoList{\r\n    //keep track of the number of tasks inside the todo list\r\n    uint public taskCount = 0; //readable state variable\r\n}\r\n\r\n",
  "sourcePath": "C:/Users/augus/Desktop/August/code/hackathons/ETHWaterloo2019/test/contracts/TodoList.sol",
  "compiler": {
    "name": "solc",
    "version": "0.5.0+commit.1d4f565a.Emscripten.clang"
  },
  "schemaVersion": "3.0.1",
  "updatedAt": "2019-11-09T16:53:36.676Z",
  "devdoc": {
    "methods": {}
  },
  "userdoc": {
    "methods": {}
  }
}