{
  "contractName": "User",
  "abi": [
    {
      "constant": true,
      "inputs": [],
      "name": "getFirstName",
      "outputs": [
        {
          "name": "",
          "type": "string"
        }
      ],
      "payable": false,
      "stateMutability": "view",
      "type": "function",
      "signature": "0x932997f1"
    },
    {
      "constant": false,
      "inputs": [
        {
          "name": "_firstName",
          "type": "string"
        }
      ],
      "name": "setFirstName",
      "outputs": [],
      "payable": false,
      "stateMutability": "nonpayable",
      "type": "function",
      "signature": "0x6392f76b"
    },
    {
      "constant": true,
      "inputs": [],
      "name": "getLastName",
      "outputs": [
        {
          "name": "",
          "type": "string"
        }
      ],
      "payable": false,
      "stateMutability": "view",
      "type": "function",
      "signature": "0x6b109282"
    },
    {
      "constant": false,
      "inputs": [
        {
          "name": "_lastName",
          "type": "string"
        }
      ],
      "name": "setLastName",
      "outputs": [],
      "payable": false,
      "stateMutability": "nonpayable",
      "type": "function",
      "signature": "0x932754f9"
    },
    {
      "constant": true,
      "inputs": [],
      "name": "getLat",
      "outputs": [
        {
          "name": "",
          "type": "uint256"
        }
      ],
      "payable": false,
      "stateMutability": "view",
      "type": "function",
      "signature": "0xa487440a"
    },
    {
      "constant": false,
      "inputs": [
        {
          "name": "_lat",
          "type": "uint256"
        }
      ],
      "name": "setLat",
      "outputs": [],
      "payable": false,
      "stateMutability": "nonpayable",
      "type": "function",
      "signature": "0xe38aea6e"
    },
    {
      "constant": true,
      "inputs": [],
      "name": "getLong",
      "outputs": [
        {
          "name": "",
          "type": "uint256"
        }
      ],
      "payable": false,
      "stateMutability": "view",
      "type": "function",
      "signature": "0x47d3fa6d"
    },
    {
      "constant": false,
      "inputs": [
        {
          "name": "_long",
          "type": "uint256"
        }
      ],
      "name": "setLong",
      "outputs": [],
      "payable": false,
      "stateMutability": "nonpayable",
      "type": "function",
      "signature": "0x96b7714d"
    },
    {
      "constant": true,
      "inputs": [],
      "name": "getWallet",
      "outputs": [
        {
          "name": "",
          "type": "address"
        }
      ],
      "payable": false,
      "stateMutability": "view",
      "type": "function",
      "signature": "0x13299604"
    },
    {
      "constant": false,
      "inputs": [
        {
          "name": "_wallet",
          "type": "address"
        }
      ],
      "name": "setWallet",
      "outputs": [],
      "payable": false,
      "stateMutability": "nonpayable",
      "type": "function",
      "signature": "0xdeaa59df"
    }
  ],
  "bytecode": "0x608060405234801561001057600080fd5b50610610806100206000396000f3fe6080604052600436106100a35763ffffffff7c01000000000000000000000000000000000000000000000000000000006000350416631329960481146100a857806347d3fa6d146100e65780636392f76b1461010d5780636b109282146101c2578063932754f91461024c578063932997f1146102ff57806396b7714d14610314578063a487440a1461033e578063deaa59df14610353578063e38aea6e14610393575b600080fd5b3480156100b457600080fd5b506100bd6103bd565b6040805173ffffffffffffffffffffffffffffffffffffffff9092168252519081900360200190f35b3480156100f257600080fd5b506100fb6103da565b60408051918252519081900360200190f35b34801561011957600080fd5b506101c06004803603602081101561013057600080fd5b81019060208101813564010000000081111561014b57600080fd5b82018360208201111561015d57600080fd5b8035906020019184600183028401116401000000008311171561017f57600080fd5b91908080601f0160208091040260200160405190810160405280939291908181526020018383808284376000920191909152509295506103e0945050505050565b005b3480156101ce57600080fd5b506101d76103f7565b6040805160208082528351818301528351919283929083019185019080838360005b838110156102115781810151838201526020016101f9565b50505050905090810190601f16801561023e5780820380516001836020036101000a031916815260200191505b509250505060405180910390f35b34801561025857600080fd5b506101c06004803603602081101561026f57600080fd5b81019060208101813564010000000081111561028a57600080fd5b82018360208201111561029c57600080fd5b803590602001918460018302840111640100000000831117156102be57600080fd5b91908080601f01602080910402602001604051908101604052809392919081815260200183838082843760009201919091525092955061048c945050505050565b34801561030b57600080fd5b506101d761049f565b34801561032057600080fd5b506101c06004803603602081101561033757600080fd5b5035610500565b34801561034a57600080fd5b506100fb610505565b34801561035f57600080fd5b506101c06004803603602081101561037657600080fd5b503573ffffffffffffffffffffffffffffffffffffffff1661050b565b34801561039f57600080fd5b506101c0600480360360208110156103b657600080fd5b5035610547565b60045473ffffffffffffffffffffffffffffffffffffffff165b90565b60035490565b80516103f390600090602084019061054c565b5050565b60018054604080516020601f600260001961010087891615020190951694909404938401819004810282018101909252828152606093909290918301828280156104825780601f1061045757610100808354040283529160200191610482565b820191906000526020600020905b81548152906001019060200180831161046557829003601f168201915b5050505050905090565b80516103f390600190602084019061054c565b60008054604080516020601f60026000196101006001881615020190951694909404938401819004810282018101909252828152606093909290918301828280156104825780601f1061045757610100808354040283529160200191610482565b600355565b60025490565b6004805473ffffffffffffffffffffffffffffffffffffffff191673ffffffffffffffffffffffffffffffffffffffff92909216919091179055565b600255565b828054600181600116156101000203166002900490600052602060002090601f016020900481019282601f1061058d57805160ff19168380011785556105ba565b828001600101855582156105ba579182015b828111156105ba57825182559160200191906001019061059f565b506105c69291506105ca565b5090565b6103d791905b808211156105c657600081556001016105d056fea165627a7a72305820314b094f3a9a07d7a84d3a41f49261579cc88d687b6132121afcf28aaba8c1290029",
  "source": "pragma solidity ^0.5.0;\r\n\r\n/**\r\n * The Parking contract allows the buying the selling of parking space\r\n */\r\ncontract User {\r\n  string firstName;\r\n  string lastName;\r\n\r\n  uint256 lat;\r\n  uint256 long;\r\n  address payable wallet;\r\n\r\n  function getFirstName () public view returns(string memory) {\r\n    return firstName;\r\n  }\r\n\r\n  function setFirstName (string memory _firstName) public {\r\n    firstName = _firstName;\r\n  }\r\n\r\n  function getLastName () public view returns(string memory) {\r\n    return lastName;\r\n  }\r\n\r\n  function setLastName (string memory _lastName) public {\r\n    lastName = _lastName;\r\n  }\r\n\r\n  function getLat () public view returns(uint256) {\r\n    return lat;\r\n  }\r\n\r\n  function setLat (uint256 _lat) public {\r\n    lat = _lat;\r\n  }\r\n\r\n  function getLong () public view returns(uint256) {\r\n    return long;\r\n  }\r\n\r\n  function setLong (uint256 _long) public {\r\n    long = _long;\r\n  }\r\n\r\n  function getWallet () public view returns(address payable){\r\n    return wallet;\r\n  }\r\n\r\n  function setWallet (address payable _wallet) public {\r\n    wallet = _wallet;\r\n  }\r\n  \r\n  \r\n}\r\n\r\n/**\r\n * The Owned contract ensures that only the creator (deployer) of a\r\n * contract can perform certain tasks.\r\n */\r\ncontract Owned {\r\n  address public owner = msg.sender;\r\n  event OwnerChanged(address indexed old, address indexed current);\r\n  modifier only_owner { require(msg.sender == owner); _; }\r\n  function setOwner(address _newOwner) only_owner public { emit OwnerChanged(owner, _newOwner); owner = _newOwner; }\r\n}\r\n\r\n",
  "sourcePath": "C:/Users/augus/Desktop/August/code/hackathons/ETHWaterloo2019/APP/EthWaterloo/contracts/User.sol",
  "compiler": {
    "name": "solc",
    "version": "0.5.0+commit.1d4f565a.Emscripten.clang"
  },
  "schemaVersion": "3.0.1",
  "updatedAt": "2019-11-09T19:56:31.610Z",
  "devdoc": {
    "methods": {}
  },
  "userdoc": {
    "methods": {},
    "notice": "The Parking contract allows the buying the selling of parking space\r"
  }
}