{
  "contractName": "User",
  "abi": [
    {
      "anonymous": false,
      "inputs": [
        {
          "indexed": true,
          "internalType": "address",
          "name": "_buyer",
          "type": "address"
        },
        {
          "indexed": false,
          "internalType": "uint256",
          "name": "_amount",
          "type": "uint256"
        }
      ],
      "name": "Purchase",
      "type": "event"
    },
    {
      "constant": true,
      "inputs": [],
      "name": "getLat",
      "outputs": [
        {
          "internalType": "uint256",
          "name": "",
          "type": "uint256"
        }
      ],
      "payable": false,
      "stateMutability": "view",
      "type": "function"
    },
    {
      "constant": false,
      "inputs": [
        {
          "internalType": "uint256",
          "name": "_lat",
          "type": "uint256"
        }
      ],
      "name": "setLat",
      "outputs": [],
      "payable": false,
      "stateMutability": "nonpayable",
      "type": "function"
    },
    {
      "constant": true,
      "inputs": [],
      "name": "getLong",
      "outputs": [
        {
          "internalType": "uint256",
          "name": "",
          "type": "uint256"
        }
      ],
      "payable": false,
      "stateMutability": "view",
      "type": "function"
    },
    {
      "constant": false,
      "inputs": [
        {
          "internalType": "uint256",
          "name": "_long",
          "type": "uint256"
        }
      ],
      "name": "setLong",
      "outputs": [],
      "payable": false,
      "stateMutability": "nonpayable",
      "type": "function"
    },
    {
      "constant": true,
      "inputs": [],
      "name": "getWallet",
      "outputs": [
        {
          "internalType": "address payable",
          "name": "",
          "type": "address"
        }
      ],
      "payable": false,
      "stateMutability": "view",
      "type": "function"
    },
    {
      "constant": false,
      "inputs": [
        {
          "internalType": "address payable",
          "name": "_wallet",
          "type": "address"
        }
      ],
      "name": "setWallet",
      "outputs": [],
      "payable": false,
      "stateMutability": "nonpayable",
      "type": "function"
    },
    {
      "constant": true,
      "inputs": [],
      "name": "getBalance",
      "outputs": [
        {
          "internalType": "uint256",
          "name": "",
          "type": "uint256"
        }
      ],
      "payable": false,
      "stateMutability": "view",
      "type": "function"
    },
    {
      "constant": false,
      "inputs": [],
      "name": "buyNothing",
      "outputs": [],
      "payable": true,
      "stateMutability": "payable",
      "type": "function"
    }
  ],
  "bytecode": "0x608060405234801561001057600080fd5b50610292806100206000396000f3fe60806040526004361061007b5760003560e01c8063a487440a1161004e578063a487440a14610119578063b22cb4d71461012e578063deaa59df14610136578063e38aea6e146101695761007b565b806312065fe01461008057806313299604146100a757806347d3fa6d146100d857806396b7714d146100ed575b600080fd5b34801561008c57600080fd5b50610095610193565b60408051918252519081900360200190f35b3480156100b357600080fd5b506100bc6101a3565b604080516001600160a01b039092168252519081900360200190f35b3480156100e457600080fd5b506100956101b2565b3480156100f957600080fd5b506101176004803603602081101561011057600080fd5b50356101b8565b005b34801561012557600080fd5b506100956101bd565b6101176101c3565b34801561014257600080fd5b506101176004803603602081101561015957600080fd5b50356001600160a01b0316610236565b34801561017557600080fd5b506101176004803603602081101561018c57600080fd5b5035610258565b6002546001600160a01b03163190565b6002546001600160a01b031690565b60015490565b600155565b60005490565b6002546040516001600160a01b03909116903480156108fc02916000818181858888f193505050501580156101fc573d6000803e3d6000fd5b506040805160018152905133917f2499a5330ab0979cc612135e7883ebc3cd5c9f7a8508f042540c34723348f632919081900360200190a2565b600280546001600160a01b0319166001600160a01b0392909216919091179055565b60005556fea265627a7a723158206e9723f31da8937959c2353cf6ba4f211189dc686295fbf0f3aeb1d6273b3fee64736f6c634300050c0032",
  "source": "pragma solidity ^0.5.0;\n\n/**\n * The Parking contract allows the buying the selling of parking space\n */\ncontract User {\n  // string firstName;\n  // string lastName;\n\n  uint256 lat;\n  uint256 long;\n  address payable wallet;\n\n  //This is an event, dont ask me what it does\n  event Purchase(address indexed _buyer, uint256 _amount);\n\n  // function getFirstName () public view returns(string memory) {\n  //   return firstName;\n  // }\n\n  // function setFirstName (string memory _firstName) public {\n  //   firstName = _firstName;\n  // }\n\n  // function getLastName () public view returns(string memory) {\n  //   return lastName;\n  // }\n\n  // function setLastName (string memory _lastName) public {\n  //   lastName = _lastName;\n  // }\n\n  function getLat () public view returns(uint256) {\n    return lat;\n  }\n\n  function setLat (uint256 _lat) public {\n    lat = _lat;\n  }\n\n  function getLong () public view returns(uint256) {\n    return long;\n  }\n\n  function setLong (uint256 _long) public {\n    long = _long;\n  }\n\n  function getWallet () public view returns(address payable){\n    return wallet;\n  }\n\n  function setWallet (address payable _wallet) public {\n    wallet = _wallet;\n  }\n  \n  function getBalance () public view returns(uint256){\n    return wallet.balance;\n  }\n  \n  function buyNothing() public payable{\n    wallet.transfer(msg.value);\n    emit Purchase(msg.sender,1);\n  }\n  \n}\n\n/**\n * The Owned contract ensures that only the creator (deployer) of a\n * contract can perform certain tasks.\n */\ncontract Owned {\n  address public owner = msg.sender;\n  event OwnerChanged(address indexed old, address indexed current);\n  modifier only_owner { require(msg.sender == owner); _; }\n  function setOwner(address _newOwner) only_owner public { emit OwnerChanged(owner, _newOwner); owner = _newOwner; }\n}\n\n",
  "sourcePath": "/Users/stirfry/Desktop/EthWaterloo/contracts/User.sol",
  "compiler": {
    "name": "solc",
    "version": "0.5.12+commit.7709ece9.Emscripten.clang"
  },
  "schemaVersion": "3.0.18",
  "updatedAt": "2019-11-12T19:19:33.400Z",
  "networkType": "ethereum",
  "devdoc": {
    "methods": {}
  },
  "userdoc": {
    "methods": {},
    "notice": "The Parking contract allows the buying the selling of parking space"
  }
}