{
  "contractName": "User",
  "abi": [
    {
      "constant": true,
      "inputs": [],
      "name": "firstName",
      "outputs": [
        {
          "name": "",
          "type": "string"
        }
      ],
      "payable": false,
      "stateMutability": "view",
      "type": "function"
    },
    {
      "constant": true,
      "inputs": [],
      "name": "lastName",
      "outputs": [
        {
          "name": "",
          "type": "string"
        }
      ],
      "payable": false,
      "stateMutability": "view",
      "type": "function"
    },
    {
      "constant": true,
      "inputs": [],
      "name": "house",
      "outputs": [
        {
          "name": "lat",
          "type": "uint256"
        },
        {
          "name": "long",
          "type": "uint256"
        }
      ],
      "payable": false,
      "stateMutability": "view",
      "type": "function"
    },
    {
      "inputs": [
        {
          "name": "_firstName",
          "type": "string"
        },
        {
          "name": "_lastName",
          "type": "string"
        },
        {
          "name": "_wallet",
          "type": "address"
        },
        {
          "name": "_lat",
          "type": "uint256"
        },
        {
          "name": "_long",
          "type": "uint256"
        }
      ],
      "payable": false,
      "stateMutability": "nonpayable",
      "type": "constructor"
    }
  ],
  "bytecode": "0x608060405234801561001057600080fd5b50604051610433380380610433833981018060405260a081101561003357600080fd5b81019080805164010000000081111561004b57600080fd5b8201602081018481111561005e57600080fd5b815164010000000081118282018710171561007857600080fd5b5050929190602001805164010000000081111561009457600080fd5b820160208101848111156100a757600080fd5b81516401000000008111828201871017156100c157600080fd5b505060208083015160408401516060909401518751939650909450916100ed9160009190880190610144565b508351610101906001906020870190610144565b5060048054600160a060020a031916600160a060020a03949094169390931790925560408051808201909152818152602001829052600255600355506101df9050565b828054600181600116156101000203166002900490600052602060002090601f016020900481019282601f1061018557805160ff19168380011785556101b2565b828001600101855582156101b2579182015b828111156101b2578251825591602001919060010190610197565b506101be9291506101c2565b5090565b6101dc91905b808211156101be57600081556001016101c8565b90565b610245806101ee6000396000f3fe6080604052600436106100565763ffffffff7c01000000000000000000000000000000000000000000000000000000006000350416634589fe0c811461005b5780639ab03dcb146100e5578063ff9b3acf146100fa575b600080fd5b34801561006757600080fd5b50610070610128565b6040805160208082528351818301528351919283929083019185019080838360005b838110156100aa578181015183820152602001610092565b50505050905090810190601f1680156100d75780820380516001836020036101000a031916815260200191505b509250505060405180910390f35b3480156100f157600080fd5b506100706101b6565b34801561010657600080fd5b5061010f610210565b6040805192835260208301919091528051918290030190f35b6000805460408051602060026001851615610100026000190190941693909304601f810184900484028201840190925281815292918301828280156101ae5780601f10610183576101008083540402835291602001916101ae565b820191906000526020600020905b81548152906001019060200180831161019157829003601f168201915b505050505081565b60018054604080516020600284861615610100026000190190941693909304601f810184900484028201840190925281815292918301828280156101ae5780601f10610183576101008083540402835291602001916101ae565b6002546003548256fea165627a7a72305820e43838c96f86c47a9b74177cd98f4da0f23842625745d0140ac61c64dad61bab0029",
  "source": "pragma solidity ^0.5.0;\r\n\r\n/**\r\n * The Parking contract allows the buying the selling of parking space\r\n */\r\ncontract User {\r\n  string public firstName;\r\n  string public lastName;\r\n  House public house;\r\n  address payable wallet;\r\n\r\n\r\n\r\n  struct House {\r\n    uint256 lat;\r\n    uint256 long;\r\n  }\r\n\r\n\r\n  constructor(string memory _firstName, string memory _lastName, address payable _wallet, uint256 _lat, uint256 _long) public {\r\n    firstName = _firstName;\r\n    lastName = _lastName;\r\n    wallet = _wallet;\r\n    house = House(_lat,_long);\r\n  }\r\n\r\n}\r\n\r\n/**\r\n * The Owned contract ensures that only the creator (deployer) of a\r\n * contract can perform certain tasks.\r\n */\r\ncontract Owned {\r\n  address public owner = msg.sender;\r\n  event OwnerChanged(address indexed old, address indexed current);\r\n  modifier only_owner { require(msg.sender == owner); _; }\r\n  function setOwner(address _newOwner) only_owner public { emit OwnerChanged(owner, _newOwner); owner = _newOwner; }\r\n}\r\n\r\n",
  "sourcePath": "C:/Users/augus/Desktop/August/code/hackathons/ETHWaterloo2019/APP/EthWaterloo/contracts/User.sol",
  "compiler": {
    "name": "solc",
    "version": "0.5.0+commit.1d4f565a.Emscripten.clang"
  },
  "schemaVersion": "3.0.1",
  "updatedAt": "2019-11-09T19:16:39.869Z",
  "devdoc": {
    "methods": {}
  },
  "userdoc": {
    "methods": {},
    "notice": "The Parking contract allows the buying the selling of parking space\r"
  }
}